:100000000C945C000C9479000C9479000C947900A9
:100010000C9479000C9479000C9479000C9479007C
:100020000C9479000C9479000C9479000C9479006C
:100030000C9479000C9479000C9479000C9479005C
:100040000C9451010C9479000C9479000C94790073
:100050000C9479000C9479000C9479000C9479003C
:100060000C9479000C947900000000080002010053
:100070000003040700000000000000000000000072
:10008000250028002B0000000000240027002A0083
:10009000040404040404040402020202020203032E
:1000A0000303030301020408102040800102040836
:1000B000102001020408102011241FBECFEFD8E049
:1000C000DEBFCDBF12E0A0E0B1E0E4E6F4E002C0A4
:1000D00005900D92A037B107D9F722E0A0E7B2E072
:1000E00001C01D92A937B207E1F70E949B010C9451
:1000F00030020C94000090E0FC01EC55FF4F24917D
:1001000080579F4FFC018491882399F090E0880FDD
:10011000991FFC01EA57FF4FA591B491FC01E458E7
:10012000FF4F859194918FB7F894EC91E22BEC936B
:100130008FBF08953FB7F894809175029091760231
:10014000A0917702B091780226B5A89B05C02F3FF9
:1001500019F00196A11DB11D3FBFBA2FA92F982FED
:100160008827BC01CD01620F711D811D911D42E0E8
:10017000660F771F881F991F4A95D1F708958F92B0
:100180009F92AF92BF92CF92DF92EF92FF920E9426
:100190009A004B015C0188ECC82ED12CE12CF12C8B
:1001A0000E949A00681979098A099B09683E734080
:1001B00081059105A8F321E0C21AD108E108F108F0
:1001C00088EE880E83E0981EA11CB11CC114D104D6
:1001D000E104F10429F7FF90EF90DF90CF90BF90FA
:1001E000AF909F908F900895CF93DF93DB01AC0188
:1001F000405F5F4FFC0121913191CF013327F9011D
:10020000E859FF4F7491F901EC55FF4F6491F901E2
:10021000E057FF4FE491EE23D1F03C91772339F082
:10022000733031F1D8F4713049F1723059F1F0E0A6
:10023000EE0FFF1FE458FF4FC591D4912FB7F894EC
:10024000E88131112CC060956E2368832FBF129610
:100250004817590779F6DF91CF9108957730A9F0C3
:100260007830C9F0743019F7209180002F7D03C0D9
:10027000209180002F7720938000D9CF24B52F774D
:1002800024BDD5CF24B52F7DFBCF2091B0002F7793
:100290002093B000CCCF2091B0002F7DF9CF6E2BF2
:1002A000D4CF1F920F920FB60F9211242F933F932A
:1002B0008F939F93AF93BF9380917102909172023D
:1002C000A0917302B09174023091700223E0230F69
:1002D0002D3758F50196A11DB11D20937002809312
:1002E000710290937202A0937302B0937402809192
:1002F000750290917602A0917702B09178020196F2
:10030000A11DB11D8093750290937602A093770290
:10031000B0937802BF91AF919F918F913F912F91B0
:100320000F900FBE0F901F90189526E8230F02968E
:10033000A11DB11DD2CF789484B5826084BD84B5EF
:10034000816084BD85B5826085BD85B5816085BDD0
:1003500080916E00816080936E0010928100809188
:100360008100826080938100809181008160809310
:100370008100809180008160809380008091B10035
:1003800084608093B1008091B00081608093B00060
:1003900080917A00846080937A0080917A008260F4
:1003A00080937A0080917A00816080937A008091B6
:1003B0007A00806880937A001092C10080E10E94E8
:1003C0007B00C0ECD1E090E1E92E91E0F92E00E055
:1003D00011E0888122960E947B00F7018081F2E083
:1003E000EF0EF11C0E947B00F80180810E5F1F4F11
:1003F0000E947B00F1E0C23DDF0759F780E0E82E64
:1004000080E0F82EC0EDD1E0BE0180EC91E00E94CA
:10041000F4000E94BF00609682E0C037D807A1F7C1
:1004200000E211E0B80180E191E00E94F400C0E236
:10043000D1E0BE0180E091E00E94F4000E94BF0084
:10044000609691E0C03CD907A1F7005F1F4FC0172D
:10045000D10741F7E114F104A9F20E940000D2CFC4
:04046000F894FFCF3E
:100464000F000E000D000C000B000A00090008002C
:10047400070006000500040003000200010010004C
:100484000100010001000100010001000000010061
:100494000000010001000000000000000000010055
:1004A4000100010000000100010000000100010042
:1004B4000100010001000100000000000100010032
:1004C4000000010001000000000001000100010023
:1004D4000100000001000100000001000100010012
:1004E4000100000001000100010001000100010001
:1004F40001000100010000000000000000000100F4
:1005040001000100010001000100010001000100DF
:1005140001000100010001000000010001000100D0
:10052400070006000500040003000200010010009B
:1005340001000100010001000100010000000000B1
:1005440000000100010000000000000000000000A5
:100554000100010000000100010000000100000092
:100564000100010001000100000000000100000082
:100574000000010001000000000001000100000073
:100584000100000001000100000001000100000062
:100594000100000001000100010001000100000051
:1005A4000100010001000000000000000000000044
:1005B4000100010001000100010001000100000030
:1005C4000100010001000100000001000100000021
:00000001FF
