:100000000C945C000C9479000C9479000C947900A9
:100010000C9479000C9479000C9479000C9479007C
:100020000C9479000C9479000C9479000C9479006C
:100030000C9479000C9479000C9479000C9479005C
:100040000C9483010C9479000C9479000C94790041
:100050000C9479000C9479000C9479000C9479003C
:100060000C9479000C947900000000080002010053
:100070000003040700000000000000000000000072
:10008000250028002B0000000000240027002A0083
:10009000040404040404040402020202020203032E
:1000A0000303030301020408102040800102040836
:1000B000102001020408102011241FBECFEFD8E049
:1000C000DEBFCDBF11E0A0E0B1E0E8EEF5E002C098
:1000D00005900D92A231B107D9F721E0A2E1B1E07C
:1000E00001C01D92AE31B207E1F70E94CD010C9420
:1000F000F2020C94000090E0FC01EC55FF4F2491BB
:1001000080579F4FFC018491882399F090E0880FDD
:10011000991FFC01EA57FF4FA591B491FC01E458E7
:10012000FF4F859194918FB7F894EC91E22BEC936B
:100130008FBF089590E0FC01E859FF4F2491FC0126
:10014000EC55FF4F3491FC01E057FF4FE491EE2353
:10015000C9F0222339F0233001F1A8F4213019F13C
:10016000223029F1F0E0EE0FFF1FE458FF4FA59178
:10017000B4918FB7F894EC91611126C030953E236D
:100180003C938FBF08952730A9F02830C9F0243060
:1001900049F7809180008F7D03C0809180008F7728
:1001A00080938000DFCF84B58F7784BDDBCF84B5AB
:1001B0008F7DFBCF8091B0008F778093B000D2CF3E
:1001C0008091B0008F7DF9CF3E2BDACF3FB7F89406
:1001D0008091170190911801A0911901B0911A0115
:1001E00026B5A89B05C02F3F19F00196A11DB11D92
:1001F0003FBFBA2FA92F982F8827BC01CD01620FCE
:10020000711D811D911D42E0660F771F881F991F88
:100210004A95D1F708958F929F92AF92BF92CF9255
:10022000DF92EF92FF926B017C010E94E6004B018E
:100230005C01C114D104E104F104B9F00E94E600AC
:10024000681979098A099B09683E734081059105FF
:1002500080F321E0C21AD108E108F10888EE880E87
:1002600083E0981EA11CB11CE4CFFF90EF90DF90BB
:10027000CF90BF90AF909F908F9008950F931F9352
:10028000CF93DF93082F162FD42FC8E06D2F661F52
:100290006627661F802F0E949A00DD0F61E0812F84
:1002A0000E949A0060E0812F0E949A00C15071F76D
:1002B000DF91CF911F910F9108950F931F93CF93CB
:1002C000DF93C82FD62F60E08AE00E949A000BE1EE
:1002D00011E0F80140816D2F8C2F0E943E01F80142
:1002E00041816D2F8C2F0E943E01F80142816D2FBC
:1002F0008C2F0E943E0161E08AE0DF91CF911F9137
:100300000F910C949A001F920F920FB60F92112426
:100310002F933F938F939F93AF93BF93809113013C
:1003200090911401A0911501B09116013091120124
:1003300023E0230F2D3758F50196A11DB11D209301
:1003400012018093130190931401A0931501B093AF
:1003500016018091170190911801A0911901B09197
:100360001A010196A11DB11D8093170190931801E8
:10037000A0931901B0931A01BF91AF919F918F91F2
:100380003F912F910F900FBE0F901F90189526E868
:10039000230F0296A11DB11DD2CF789484B582603F
:1003A00084BD84B5816084BD85B5826085BD85B519
:1003B000816085BD80916E00816080936E00109297
:1003C0008100809181008260809381008091810012
:1003D00081608093810080918000816080938000A3
:1003E0008091B10084608093B1008091B000816001
:1003F0008093B00080917A00846080937A0080912D
:100400007A00826080937A0080917A008160809384
:100410007A0080917A00806880937A001092C100FF
:100420008AE00E947B008CE00E947B008BE00E94AF
:100430007B00CFEF22E1C22E21E0D22E30E0A32EAE
:1004400030E0B32E90E0E92E91E0F92E8701F8011B
:1004500081918F0180931B0110921C0110921D014C
:100460006CE070E08BE090E00E945D0162E370E080
:1004700080E090E00E940B01F1E009301F0739F79E
:1004800000E011E0C0931B01F80181918F0180937E
:100490001C0110921D016CE070E08BE090E00E9466
:1004A0005D0162E370E080E090E00E940B01F1E00A
:1004B00009301F0739F7C0931B01C0931C01F701D6
:1004C00081917F0180931D016CE070E08BE090E0F2
:1004D0000E945D0162E370E080E090E00E940B0109
:1004E0000E151F0541F789E0882E81E0982E7401D2
:1004F000F70181917F0180931B01C0931C01C09380
:100500001D016CE070E08BE090E00E945D0162E311
:1005100070E080E090E00E940B01CE14DF0441F710
:1005200009E011E010921B01F80181918F01809385
:100530001C01C0931D016CE070E08BE090E00E9414
:100540005D0162E370E080E090E00E940B01E01644
:10055000F10641F710921B0110921C01F4018191E8
:100560004F0180931D016CE070E08BE090E00E94F1
:100570005D0162E370E080E090E00E940B01801674
:10058000910641F706E010E0C0931B01C0931C01E7
:10059000C0931D016CE070E08BE090E00E945D0173
:1005A00064EF71E080E090E00E940B0110921B016B
:1005B00010921C0110921D016CE070E08BE090E045
:1005C0000E945D0164EF71E080E090E00E940B0109
:1005D00001501109C9F6A114B10409F433CF0E94E6
:0805E000000030CFF894FFCFBA
:1005E8000080C0E0F0F8FCFEFFFF7F3F1F0F07030D
:0205F800010000
:00000001FF
