:100000000C945C000C9479000C9479000C947900A9
:100010000C9479000C9479000C9479000C9479007C
:100020000C9479000C9479000C9479000C9479006C
:100030000C9479000C9479000C9479000C9479005C
:100040000C94E8000C9479000C9479000C947900DD
:100050000C9479000C9479000C9479000C9479003C
:100060000C9479000C947900000000002400270013
:100070002A0000000000250028002B0004040404CE
:100080000404040402020202020203030303030342
:10009000010204081020408001020408102001021F
:1000A00004081020000000080002010000030407FB
:1000B000000000000000000011241FBECFEFD8E0B8
:1000C000DEBFCDBF11E0A0E0B1E0EAE9F4E002C09C
:1000D00005900D92A030B107D9F721E0A0E0B1E082
:1000E00001C01D92A930B207E1F70E9432010C94C1
:1000F0004B020C940000EDEAF0E02491E9E9F0E015
:100100009491E5E8F0E0E491EE23C9F0222339F080
:10011000233001F1A8F4213019F1223029F1F0E067
:10012000EE0FFF1FEE58FF4FA591B4912FB7F89433
:10013000EC91811126C090959E239C932FBF08952A
:100140002730A9F02830C9F0243049F720918000E9
:100150002F7D03C0209180002F7720938000DFCF78
:1001600024B52F7724BDDBCF24B52F7DFBCF209185
:10017000B0002F772093B000D2CF2091B0002F7D18
:10018000F9CF9E2BDACF3FB7F8948091050190917B
:100190000601A0910701B091080126B5A89B05C0F2
:1001A0002F3F19F00196A11DB11D3FBFBA2FA92FF6
:1001B000982F8827BC01CD01620F711D811D911DF3
:1001C00042E0660F771F881F991F4A95D1F708955F
:1001D0001F920F920FB60F9211242F933F938F937C
:1001E0009F93AF93BF938091010190910201A091E1
:1001F0000301B09104013091000123E0230F2D375A
:1002000058F50196A11DB11D2093000180930101B5
:1002100090930201A0930301B09304018091050122
:1002200090910601A0910701B09108010196A11DCE
:10023000B11D8093050190930601A0930701B0932F
:100240000801BF91AF919F918F913F912F910F9096
:100250000FBE0F901F90189526E8230F0296A11D40
:10026000B11DD2CF789484B5826084BD84B581609D
:1002700084BD85B5826085BD85B5816085BD809171
:100280006E00816080936E001092810080918100E9
:1002900082608093810080918100816080938100E1
:1002A000809180008160809380008091B1008460A3
:1002B0008093B1008091B00081608093B000809104
:1002C0007A00846080937A0080917A0082608093C3
:1002D0007A0080917A00816080937A0080917A0020
:1002E000806880937A001092C100E9E9F0E02491DF
:1002F000E5E8F0E08491882399F090E0880F991F59
:10030000FC01E859FF4FA591B491FC01EE58FF4F55
:10031000859194918FB7F894EC91E22BEC938FBF79
:1003200010E492E5C92EDD24D394E12CF12CC0E039
:10033000D0E010937C0080917A00806480937A00F2
:1003400080917A0086FDFCCF809178002091790021
:10035000322F282F032E000C440B550B245131094A
:1003600041095109A5EAB0E00E940F02A7019601D8
:100370000E94F001285231094109510981E02A31D6
:1003800031050CF480E00E947B000E94C3002B0129
:100390003C0188EE882E83E0982EA12CB12C0E947F
:1003A000C3006419750986099709683E7340810581
:1003B0009105A8F321E0821A9108A108B10888EEFE
:1003C000480E83E0581E611C711C81149104A10425
:1003D000B10429F7209709F4ACCF0E940000A9CFFF
:1003E000052E97FB1EF400940E94070257FD07D0CC
:1003F0000E941A0207FC03D04EF40C940702509599
:100400004095309521953F4F4F4F5F4F0895909500
:100410008095709561957F4F8F4F9F4F08950E94F3
:100420003C02A59F900DB49F900DA49F800D911D3F
:1004300011240895A1E21A2EAA1BBB1BFD010DC0B9
:10044000AA1FBB1FEE1FFF1FA217B307E407F50784
:1004500020F0A21BB30BE40BF50B661F771F881F60
:10046000991F1A9469F760957095809590959B01F6
:10047000AC01BD01CF010895A29FB001B39FC0019F
:10048000A39F700D811D1124911DB29F700D811DC0
:0A0490001124911D0895F894FFCF88
:00000001FF
